:100000000C9433090C944F090C944F090C944F092C
:100010000C944F090C944F090C944F090C944F0900
:100020000C944F090C944F090C94680F0C94C40F56
:100030000C944F090C944F090C944F090C944F09E0
:100040000C944F090C944F090C944F090C944F09D0
:100050000C944F090C944F090C944F090C944F09C0
:100060000C944F090C944F090C944F090C944F09B0
:100070000C944F090C944F090C944F090C944F09A0
:100080000C944F090C944F090C944F090C944F0990
:100090000C944F090C944F090C944F090C944F0980
:1000A0000C944F090C944F090C944F09430E4B0EBE
:1000B000510E570E5D0E630E690E6F0E0000E30EBB
:1000C000E30EE30E0000000000000000000000004E
:1000D000E30EE30EE30E00000000000000000A0F34
:1000E000060F0000000000000000060F0A0F0000CD
:1000F000000000000000E30EE30EE30EE30E00003C
:10010000000000000000E30EE30EE30EE30E00002B
:10011000E30EE30EE30EE30EE30EE30E0000000039
:10012000E30EE30EE30EE30EE30EE30E0000000029
:10013000E30EE30EE30EE30EE30EE30EE30EE30E37
:10014000E30EE30E000000000000000000000000CD
:10015000000000000000000000000000000000009F
:10016000000000000000EB0EEB0EEB0EEB0E0000AB
:10017000000000000000EB0EEB0EEB0EEB0E00009B
:10018000000000000000000000000000000000006F
:10019000000000000000000000000000EB0E0C0F4B
:1001A000E30E0C0FE30E00000000000000000C0F37
:1001B000E30E0C0F0C0FEB0EEB0EE30EE30EE30E53
:1001C0000C0F0C0F000000000C0F0C0FE30E0C0FB7
:1001D0000C0FEB0E00000000E30E0C0FE30E0C0FF3
:1001E000EB0EEB0EE30E0C0F0C0FE30E0000000005
:1001F00000000000000000000000000000000000FF
:100200000000000000000000000000000000EB0EF5
:10021000EB0EEB0EEB0E0000000000000000EB0EFA
:10022000EB0EEB0EEB0E00000000000000000000E3
:1002300000000000000000000000000000000000BE
:1002400000000000EB0E000000000000E30E0000C4
:100250000000000000000000000000000000EB0EA5
:10026000EB0EE30EE30EE30EE30EE30E00000000E0
:10027000E30EE30EE30EE30EE30EEB0E00000000D0
:10028000E30EE30EE30EE30EEB0EEB0E0C0F0C0F82
:100290000C0F0C0F00000000000000000000000028
:1002A000000000000000000000000000000000004E
:1002B000000000000000EB0EEB0EEB0EEB0E00005A
:1002C000000000000000EB0EEB0EEB0EEB0E00004A
:1002D000000000000000000000000000000000001E
:1002E000000000000000000000000000EB0EE30E24
:1002F000E30EE30E00000000000000000000E30E2B
:10030000E30EE30EE30EEB0EEB0EE30EE30EE30E55
:10031000E30E0000000000000000E30EE30EE30E19
:10032000E30EEB0E00000000E30EE30EE30EE30E1F
:1003300000000000000000000000000000000000BD
:1003400000000000000000000000000000000000AD
:10035000000000000000000000000000000000009D
:10036000000000000000000000000000000000008D
:100740000000000000000000000000000000E30EB8
:10075000E30EE30E000000000000000000000000B7
:10076000E30EE30EE30E0000000000000000080F9F
:10077000040F0000000000000000040F080F00003C
:10078000000000000000E30EE30EE30EE30E0000A5
:10079000000000000000E30EE30EE30EE30E000095
:1007A000E30EE30EE30EE30EE30EE30E00000000A3
:1007B000E30EE30EE30EE30EE30EE30E0000000093
:1007C000E30EE30EE30EE30EE30EE30EE30EE30EA1
:1007D000E30EE30E00000000000000000000000037
:1007E0000000000000000000000000000000000009
:1007F000000000000000EB0EEB0EEB0EEB0E000015
:10080000000000000000EB0EEB0EEB0EEB0E000004
:1008100000000000000000000000000000000000D8
:10082000000000000000000000000000EB0E0C0FB4
:10083000E30E0C0FE30E00000000000000000C0FA0
:10084000E30E0C0F0C0FEB0EEB0EE30EE30EE30EBC
:100850000C0F0C0F000000000C0F0C0FE30E0C0F20
:10086000E30EEB0E00000000E30E0C0FE30E0C0F86
:10087000EB0EEB0EE30E0C0F0C0FE30E000000006E
:100880000000000000000000000000000000000068
:100890000000000000000000000000000000EB0E5F
:1008A000EB0EEB0EEB0E0000000000000000EB0E64
:1008B000EB0EEB0EEB0E000000000000000000004D
:1008C0000000000000000000000000000000000028
:1008D00000000000EB0E000000000000E30E00002E
:1008E0000000000000000000000000000000EB0E0F
:1008F000EB0EE30EE30EE30EE30EE30E000000004A
:10090000E30EE30EE30EE30EE30EEB0E0000000039
:10091000E30EE30EE30EE30EEB0EEB0E0C0F0C0FEB
:100920000C0F0C0F00000000000000000000000091
:1009300000000000000000000000000000000000B7
:10094000000000000000EB0EEB0EEB0EEB0E0000C3
:10095000000000000000EB0EEB0EEB0EEB0E0000B3
:100960000000000000000000000000000000000087
:10097000000000000000000000000000EB0EE30E8D
:10098000E30EE30E00000000000000000000E30E94
:10099000E30EE30EE30EEB0EEB0EE30EE30EE30EBF
:1009A000E30E0000000000000000E30EE30EE30E83
:1009B000E30EEB0E00000000E30EE30EE30EE30E89
:1009C0000000000000000000000000000000000027
:1009D0000000000000000000000000000000000017
:1009E0000000000000000000000000000000000007
:1009F00000000000000000000000000000000000F7
:100DD00000000000000000000000000000E02B2ADE
:100DE0002900000000292C28E2000000000201294F
:100DF0002929290102000000E01D140D0E00000049
:100E000000101A050FE0E1041208180C0000070B8F
:100E1000171116E10000191B131C2929090A0615D0
:100E200000000000000000000000000000000000C2
:100E300000000000000000000000000000000000B2
:100E40000000000000000000000000000033353505
:100E500055000000002730301F0000333637381EA1
:100E600000002D262F2F5400000034342D210000C7
:100E700031243132000000000000000000000000BA
:100E80000000000000000000000000000000000062
:100E90000000000000000000000000000000000052
:100EA0000000000067000000000000000000001EBD
:100EB0001F2021220000232425262700000057564A
:100EC00055540000232236370000000000000000C7
:100ED0000000000000000000000000000000000012
:100EE0000000000000000000000000000000000002
:100EF000000000000043444500000000004A4B4E43
:100F00004D00003A3B3C3E000000005052514F0063
:100F100000003F40414200000000000000000000CF
:100F200000000000000000000000000000000000C1
:100F300000000000000000000000000000000000B1
:100F400000000000000000000000000000000000A1
:100F50000000000000000000000000000000000091
:100F60000000000000000000000000000000000081
:100F70000000000000000000000000000000000071
:100F80000000000000000000000000000000000061
:100F90000000000000000000000000000000000051
:100FA0000000000000000000000000000000000041
:100FB0000000000000000000000000000000000031
:100FC0000000000000000000000000000000000021
:100FD0000000000000000000000000000000000011
:100FE0000000000000000000000000000000000001
:100FF00000000000000000000000000000000000F1
:1010000000000000000000000000000000000000E0
:1010100000000000000000000000000000000000D0
:1010200000000000000000000000000000000000C0
:1010300000000000000000000000000000000000B0
:1010400000000000000000000000000000000000A0
:101050000000000000000000000000000000000090
:101060000000000000000000000000000000000080
:101070000000000000000000000000000000000070
:101080000000000000000000000000000000000060
:101090000000000000000000000000000000000050
:1010A0000000000000000000000000000000000040
:1010B0000000000000000000000000000000000030
:1010C0000000000000000000000000000000000020
:1010D0000000000000000000000000000000000010
:1010E0000000000000000000000000000000000000
:1010F00000000000000000000000000000000000F0
:1011000000000000000000000000000000000000DF
:1011100000000000000000000000000000000000CF
:1011200000000000000100004C121200020000B993
:10113000113B00210000CB1109002200000D123FDD
:1011400000210100E4110900220100F4111900033B
:101150000000B51104010309049B111802030904DE
:1011600063113636034500720067006F0044006F5C
:1011700000780020006500720067006F006E006F4D
:10118000006D006900630020006B0065007900625B
:10119000006F006100720064000000180375006EAB
:1011A00000730070006500630069006600690065F7
:1011B00000640000000403090409023B000201006E
:1011C000C0320904000001030101000921110100DE
:1011D00001223F000705810308000A0904010001FC
:1011E00003000000092111010001221900070582F6
:1011F0000308000A050C0901A10185031501269CBD
:101200000219012A9C02751095018100C00501098F
:1012100006A10175019508050719E029E7150025C4
:10122000018102950175088103950575010508196D
:10123000012905910295017503910395067508151D
:101240000025680507190029688100C01201000205
:1012500000000020501D286000010102000101C1B2
:101260000601C106000011241FBECFEFDAE0DEBF89
:10127000CDBF11E0A0E0B1E0E4EEF2E202C00590E3
:101280000D92AA31B107D9F712E0AAE1B1E001C08D
:101290001D92AB3CB107E1F7DBD00C9470110C94BC
:1012A000000020911A01281778F030E0A901481BAE
:1012B0005109CA01FA01EE0FFF1F8E0F9F1FFC019B
:1012C000EB57FD4F8081089580E0089520911A0129
:1012D000281778F030E0A901481B5109CA01FA012A
:1012E000EE0FFF1F8E0F9F1FFC01EB57FD4F8281FA
:1012F000089580E0089521E030E0F901E050FF4FCB
:101300009081911114C091E09083E0911A01EF5FF8
:10131000E0931A01F0E0AF01440F551FE40FF51FF1
:10132000EB57FD4F808321836283822F08952F5FC7
:101330003F4F2431310509F780E00895CF93DF93C3
:1013400040911A0191E0C82FD0E0C050DF4F4917FB
:10135000B8F1292F30E0F901EE0FFF1F2E0F3F1FCC
:10136000F901EB57FD4F2181281328C0292F30E0C8
:10137000F9019417B9F03196BF01660F771FE60F98
:10138000F71FEB57FD4F5081D901AA0FBB1F2A0F42
:101390003B1FD901AB57BD4F5C93218111962C9314
:1013A0009F5FE4CFEE0FFF1F2E0F3F1FF901EB579A
:1013B000FD4F1082118218824FEF490F9F5FC7CFF8
:1013C00040931A01DF91CF9108952091C30280913B
:1013D000C60290918402E0918302222381F02EE0E4
:1013E000E29FF001112424E5929FE00DF11D1124EC
:1013F000E80FF11DEE0FFF1FE45BF84F0FC02EE06A
:10140000E29FF001112424E5929FE00DF11D1124CB
:10141000E80FF11DEE0FFF1FE454FF4F85919491EB
:10142000009711F0FC01099580911A01282F30E0F6
:10143000F901EE0FFF1F2E0F3F1FF901EB57FD4F74
:101440009281923021F490912E02911177CF0895DC
:10145000E1D08CE090E09093890080938800909395
:101460008B0080938A0090938D0080938C00259A46
:10147000269A279ADBD4F1D48823E9F38FE790E00A
:1014800090938900809388002FE732E440E1215057
:1014900030404040E1F700C0000090938B00809303
:1014A0008A005FE7E2E4F0E15150E040F040E1F70C
:1014B00000C0000090938D0080938C002FE732E4F1
:1014C00040E1215030404040E1F700C00000259845
:1014D00026982798909389008093880090938B009A
:1014E00080938A0090938D0080938C001EE0809101
:1014F000140190911501209116013091170130933C
:1015000015012093140190931701809316018DD03B
:1015100010922D0280912D02863008F059C0109251
:10152000C402D091C402C0912D02DE3008F04CC03C
:10153000E0911601F09117011C9FC00111248D0F3D
:10154000911DE80FF91F20812093C302E09114013F
:10155000F0911501E80FF91F30813093C102231774
:1015600069F1FC01E15DFD4F7F01222349F080E03C
:1015700098DE80938402F70180831092C20209C032
:10158000208120938402FC01E55EFE4F80818093E0
:10159000C202C0938302D093C6021092C50215DF27
:1015A0008091C402E0912D021E9FF0011124E80FEA
:1015B000F11DE55EFE4F8091C20280838091C402DE
:1015C0008F5F8093C402ADCFCF5FC0932D02A2CFB7
:1015D00047D462D68FE19EE40197F1F700C0000086
:1015E0008091230280FF02C0259A01C02598809136
:1015F000230281FF02C0269A01C02698809123020F
:1016000082FF02C0279A01C027988091230280910F
:1016100023026DCF1AD0811104C027D2811103C0DB
:10162000089581E0089582E00895CF93DF93EC015F
:10163000D5D0811106C0CE0143D2882319F082E0B3
:1016400001C081E0DF91CF910895E1E6F0E080E80C
:101650008083108256985E9824982C982598269816
:10166000279889EA8093800089E0809381009ED248
:101670003F9885E08A95F1F70000579885E08A95B4
:10168000F1F70000549885E08A95F1F7000055982D
:1016900085E08A95F1F700006E9885E08A95F1F76C
:1016A0000000479A85E08A95F1F700005F9A85E08F
:1016B0008A95F1F700005C9A85E08A95F1F70000C1
:1016C0005D9A85E08A95F1F70000769A85E08A9523
:1016D000F1F70000879885E08A95F1F70000869879
:1016E00085E08A95F1F70000859885E08A95F1F705
:1016F0000000849885E08A95F1F70000819885E0E4
:101700008A95F1F70000809885E08A95F1F700004E
:10171000209885E08A95F1F70000219885E08A9568
:10172000F1F70000229885E08A95F1F700002398F0
:1017300085E08A95F1F70000529885E08A95F1F7E7
:101740000000539885E08A95F1F700003E9885E007
:101750008A95F1F700008F9A85E08A95F1F70000ED
:101760008E9A85E08A95F1F700008D9A85E08A953A
:10177000F1F700008C9A85E08A95F1F70000899ACC
:1017800085E08A95F1F70000889A85E08A95F1F75F
:101790000000289885E08A95F1F70000299885E0F7
:1017A0008A95F1F700002A9885E08A95F1F7000004
:1017B0002B9885E08A95F1F700005A9885E08A9584
:1017C000F1F700005B9885E08A95F1F700004698F4
:1017D00085E08A95F1F7000080E00895CF93DF93CC
:1017E000FC01209A85E08A95F1F700008FB1809581
:1017F000881F8827881F87839FB181E096FB9927E0
:1018000090F99827958B9FB195FB992790F9982788
:1018100093A39FB192959170982791AB9FB19695A4
:101820009170982797AF9FB1DF01AA5BBF4F91706E
:10183000982717969C931797209895E09A95F1F71B
:101840000000219A95E09A95F1F700009FB19095DC
:10185000991F9927991F90879FB196FB992790F917
:101860009827968B9FB195FB992790F9982794A379
:101870009FB192959170982792AB9FB1EF01C05C98
:10188000DF4F96959170982798839FB19170982714
:1018900018969C931897219895E09A95F1F7000077
:1018A000229A95E09A95F1F700009FB19095991FC3
:1018B0009927991F91879FB196FB992790F99827AF
:1018C000978B9FB195FB992790F9982795A39FB186
:1018D00092959170982793AB9FB1219696959170B0
:1018E000982798839FB19170982719969C93199780
:1018F000229895E09A95F1F70000239A95E09A9541
:10190000F1F700009FB19095991F9927991F928731
:101910009FB196FB992790F99827908F9FB195FBDF
:10192000992790F9982796A39FB19295917098273F
:1019300094AB9FB1219696959170982798839FB10B
:10194000917098271A969C931A97239895E09A95E8
:10195000F1F70000529A95E09A95F1F700009FB1D7
:101960009095991F9927991F93879FB196FB992767
:1019700090F99827918F9FB195FB992790F9982717
:1019800097A39FB192959170982795AB9FB121969F
:1019900096959170982798839FB1917098271B9680
:1019A0009C931B97529895E09A95F1F70000539AF3
:1019B00095E09A95F1F700009FB19095991F9927AE
:1019C000991F94879FB196FB992790F99827928F3A
:1019D0009FB195FB992790F9982790A79FB1929571
:1019E0009170982796AB9FB1219696959170982704
:1019F00098839FB1917098271C969C931C9753983D
:101A000095E09A95F1F700003E9A95E09A95F1F7E6
:101A100000009FB19095991F9927991F95879FB1B5
:101A200096FB992790F99827938F9FB195FB99275B
:101A300090F9982791A79FB192959170982797ABAD
:101A40009FB1EB5BFF4F96959170982790839FB164
:101A5000917089271D968C933E9885E08A95F1F7C1
:101A6000000080E0DF91CF910895CF93A8D080E46B
:101A7000C5D0C82F811120C080E0C0D080E8BED082
:101A80008FEFBCD0B3D09BD080E4B8D0C82F8111E9
:101A900013C08CE0B3D080E8B1D08FEFAFD0A6D028
:101AA0008ED080E4ABD0C82F811106C084E1A6D0CF
:101AB0008FEFA4D08FEFA2D099D08C2FCF91089523
:101AC000BF92CF92DF92EF92FF920F931F93CF932B
:101AD000DF931F92CDB7DEB78C01C7DFB82E882306
:101AE00079F086E09801295F3F4FF8011192E217E3
:101AF000F307E1F78150025F1F4F8111F3CF4AC016
:101B0000C12CD12CEE24E394F12C59D080E476D072
:101B100082E174D0C7010C2C01C0880F0A94EAF747
:101B200080956CD063D04BD080E468D083E166D0E0
:101B300046D081E463D0CE0101967ED057D0898112
:101B400090E0F801EC0DFD1D45E050E09C01042EF5
:101B500002C0359527950A94E2F72170332761E09A
:101B6000262721702083415051093E964F3F2FEF89
:101B7000520761F76FEFC61AD60A87E0C816D1047C
:101B800009F0C3CF1CD080E439D082E137D08FEF89
:101B900035D02CD08B2D0F90DF91CF911F910F91CD
:101BA000FF90EF90DF90CF90BF900895E9EBF0E0C9
:101BB00080818C7F808388E48093B800089584EAD4
:101BC0008093BC008091BC0087FFFCCF8091B9005E
:101BD000887F883049F08091B900887F803121F07A
:101BE0008091B900887F089580E0089584E980930A
:101BF000BC008091BC0084FDFCCF08958093BB00A5
:101C000084E88093BC008091BC0087FFFCCF80916A
:101C1000B900887F883171F08091B900887F88325F
:101C200049F08091B900887F803421F08091B9001B
:101C3000887F089580E0089524EC2093BC002091D3
:101C4000BC0027FFFCCF2091BB00FC0120838091CA
:101C5000B900887F803521F08091B900887F089590
:101C600080E00895962F662309F45AC0462F50E06D
:101C7000FA01E05EF109E830F105B8F5EA5AFF4FE4
:101C800090912B0227C3882311F0916001C09E7FA1
:101C900090932B020895882311F09260F9CF9D7FD5
:101CA000F7CF882311F09460F3CF9B7FF1CF882387
:101CB00011F09860EDCF977FEBCF882311F0906102
:101CC000E7CF9F7EE5CF882311F09062E1CF9F7D23
:101CD000DFCF882311F09064DBCF9F7BD9CF88239F
:101CE00011F09068D5CF9F77D3CFE5E2F2E020E006
:101CF00030E04081882339F041110CC0F901EB5DDF
:101D0000FD4F90830895491305C0F901EB5DFD4F28
:101D1000108208952F5F3F4F31962630310549F7E5
:101D20000895CF93DF93C82FD0E0C95EDD4F88813F
:101D300005DB1882DF91CF9108950F931F93CF9306
:101D40009091C60220918402E09183023EE0E39FDD
:101D5000F001112434E5239FE00DF11D1124E90F5A
:101D6000F11DE452F24FC491082F10E0095E1D4F9F
:101D7000F8018081E3DA80E0A9DA8150823018F43A
:101D800080E08FDADBDA60E08C2FB5DAF80180834F
:101D9000CF911F910F9108958091C6029091840276
:101DA000E09183022EE0E29FF001112424E5929F4E
:101DB000E00DF11D1124E80FF11DE452F24F649182
:101DC0008091C3024FCF8091C202811103C081E094
:101DD00080932E02E1CF81E08093C2028091C50200
:101DE0008F5F8093C5025DDA809384029091C60272
:101DF000E09183022EE0E29FF0011124E90FF11D32
:101E0000E15DFD4F8083E1CA81E097CF81E089CF1A
:101E100082E093CF82E085CF61EE8091C30222DF22
:101E2000D2CF8091E80080FFFCCF089581E08093BD
:101E3000D70080EA8093D80082E189BD09B400FE12
:101E4000FDCF80E98093D8001092E00010922C0220
:101E50008CE08093E2007894089580912C0208959C
:101E600080912C02811102C08FEF08958FB7F894F2
:101E700091E09093E9009091E4009E5C21E0309124
:101E8000E80035FD0EC08FBF80912C02882361F3DE
:101E90008091E400891741F38FB7F8942093E9000B
:101EA000EECF90912B029093F1001092F100E5E2B9
:101EB000F2E096E09E0F21912093F1009E13FBCF5C
:101EC0009AE39093E800109224028FBF80E0089577
:101ED0001F920F920FB60F9211248F939F93EF933F
:101EE000FF938091E1001092E10083FF0FC01092F8
:101EF000E90091E09093EB001092EC0092E2909355
:101F0000ED0098E09093F00010922C0282FF33C015
:101F100080912C02882379F180911801882359F14E
:101F2000809122028F5F80932202837021F581E0ED
:101F30008093E9008091E80085FF1DC08091240214
:101F40008F5F8093240290911801891314C010921E
:101F5000240280912B028093F1001092F100E5E2BF
:101F6000F2E086E08E0F91919093F1008E13FBCFFB
:101F70008AE38093E800FF91EF919F918F910F90FA
:101F80000FBE0F901F9018951F920F920FB60F92D1
:101F90001124EF92FF920F931F932F933F934F9330
:101FA0005F936F937F938F939F93AF93BF93EF93C1
:101FB000FF93CF93DF931F92CDB7DEB71092E90066
:101FC0008091E80083FF20C19091F1008091F100A1
:101FD0003091F1002091F100E32EF12CF22A0091D2
:101FE000F1002091F10010E0122B2091F10060919E
:101FF000F10032EF3093E800863009F046C039E056
:1020000084E291E1FC01459154914E155F0539F44C
:10201000FC013296459154914017510721F00796E3
:10202000315081F7F1C0FC01349645915491FC0187
:102030003696849130E0362B2F3F310519F010F0A1
:102040002FEF30E0281708F4822F3EEF9091E80040
:10205000292F2570D9F392FDDAC0982F813208F02C
:1020600090E2FA01292F222331F064916093F1006C
:1020700021503196F8CF490F511D891B3093E8004C
:102080008111E4CF903211F3C2C0853049F48EEF54
:102090008093E800C6DE8E2D80688093E300B7C091
:1020A000893039F591116BC0E0922C028EEF80934C
:1020B000E80041E08EE592E14093E9009C012F5F4A
:1020C0003F4FFC0154915093EB00552359F0F90117
:1020D00024912093EC009C012D5F3F4F3196849119
:1020E0008093ED004F5F453011F0C901E5CF8EE1DF
:1020F00041C0883039F4903809F041C092DE8091B7
:102100002C0260C0811115C099838BDE99819238B1
:1021100051F40093E9008091EB0085FB882780F95A
:102120001092E90001C080E08093F1001092F1006C
:1021300067C0282F2D7F213011F5923001F5EF284F
:1021400009F062C00F779FEF900F943008F05CC0E9
:102150009EEF9093E8000093E900833009F454C0A7
:1021600089E18093EB0081E090E0002E01C0880FB0
:102170000A94EAF78093EA001092EA0048C0012B23
:1021800009F042C0913A09F5813089F44ADE809124
:102190002B028093F1001092F100E5E2F2E086E07C
:1021A0008E0F91919093F1008E13FBCF29C0823056
:1021B00021F437DE8091180105C0833029F531DE26
:1021C000809119018093F1001BC09132E9F48930AC
:1021D00061F48091E80082FFFCCF8091F100809350
:1021E00023028BEF8093E8000BC08A3029F4F09231
:1021F00018011092240204C08B3031F4E0921901CE
:102200008EEF8093E80003C081E28093EB000F9093
:10221000DF91CF91FF91EF91BF91AF919F918F91FE
:102220007F916F915F914F913F912F911F910F91EE
:10223000FF90EF900F900FBE0F901F901895909108
:102240002C02911102C08FEF08959FB7F89422E0FD
:102250002093E9002091E4002E5C32E04091E800F8
:1022600045FD0EC09FBF90912C02992361F3909180
:10227000E400921741F39FB7F8943093E900EECF52
:102280008093F1006093F1007093F1008AE38093F2
:10229000E8009FBF80E008956091C7027091C80276
:1022A0008091C9029091CA026817790781F083E092
:1022B000C6DF992787FD9095009759F42091C702B2
:1022C0003091C8023093CA022093C902089580E079
:1022D00090E00895EE0FFF1F0590F491E02D099412
:0422E000F894FFCFA0
:1022E40001000000000000000000000000000000E9
:0A22F400000000006F01C3017D012E
:00000001FF
